{
  "_format": "hh-sol-artifact-1",
  "contractName": "SimpleDEX",
  "sourceName": "contracts/SimpleDEX.sol",
  "abi": [
    {
      "inputs": [
        {
          "internalType": "address",
          "name": "_tokenA",
          "type": "address"
        },
        {
          "internalType": "address",
          "name": "_tokenB",
          "type": "address"
        }
      ],
      "stateMutability": "nonpayable",
      "type": "constructor"
    },
    {
      "inputs": [
        {
          "internalType": "address",
          "name": "spender",
          "type": "address"
        },
        {
          "internalType": "uint256",
          "name": "allowance",
          "type": "uint256"
        },
        {
          "internalType": "uint256",
          "name": "needed",
          "type": "uint256"
        }
      ],
      "name": "ERC20InsufficientAllowance",
      "type": "error"
    },
    {
      "inputs": [
        {
          "internalType": "address",
          "name": "sender",
          "type": "address"
        },
        {
          "internalType": "uint256",
          "name": "balance",
          "type": "uint256"
        },
        {
          "internalType": "uint256",
          "name": "needed",
          "type": "uint256"
        }
      ],
      "name": "ERC20InsufficientBalance",
      "type": "error"
    },
    {
      "inputs": [
        {
          "internalType": "address",
          "name": "approver",
          "type": "address"
        }
      ],
      "name": "ERC20InvalidApprover",
      "type": "error"
    },
    {
      "inputs": [
        {
          "internalType": "address",
          "name": "receiver",
          "type": "address"
        }
      ],
      "name": "ERC20InvalidReceiver",
      "type": "error"
    },
    {
      "inputs": [
        {
          "internalType": "address",
          "name": "sender",
          "type": "address"
        }
      ],
      "name": "ERC20InvalidSender",
      "type": "error"
    },
    {
      "inputs": [
        {
          "internalType": "address",
          "name": "spender",
          "type": "address"
        }
      ],
      "name": "ERC20InvalidSpender",
      "type": "error"
    },
    {
      "inputs": [],
      "name": "ReentrancyGuardReentrantCall",
      "type": "error"
    },
    {
      "anonymous": false,
      "inputs": [
        {
          "indexed": true,
          "internalType": "address",
          "name": "owner",
          "type": "address"
        },
        {
          "indexed": true,
          "internalType": "address",
          "name": "spender",
          "type": "address"
        },
        {
          "indexed": false,
          "internalType": "uint256",
          "name": "value",
          "type": "uint256"
        }
      ],
      "name": "Approval",
      "type": "event"
    },
    {
      "anonymous": false,
      "inputs": [
        {
          "indexed": true,
          "internalType": "address",
          "name": "provider",
          "type": "address"
        },
        {
          "indexed": false,
          "internalType": "uint256",
          "name": "amountA",
          "type": "uint256"
        },
        {
          "indexed": false,
          "internalType": "uint256",
          "name": "amountB",
          "type": "uint256"
        },
        {
          "indexed": false,
          "internalType": "uint256",
          "name": "liquidity",
          "type": "uint256"
        }
      ],
      "name": "LiquidityAdded",
      "type": "event"
    },
    {
      "anonymous": false,
      "inputs": [
        {
          "indexed": true,
          "internalType": "address",
          "name": "provider",
          "type": "address"
        },
        {
          "indexed": false,
          "internalType": "uint256",
          "name": "amountA",
          "type": "uint256"
        },
        {
          "indexed": false,
          "internalType": "uint256",
          "name": "amountB",
          "type": "uint256"
        },
        {
          "indexed": false,
          "internalType": "uint256",
          "name": "liquidity",
          "type": "uint256"
        }
      ],
      "name": "LiquidityRemoved",
      "type": "event"
    },
    {
      "anonymous": false,
      "inputs": [
        {
          "indexed": true,
          "internalType": "address",
          "name": "user",
          "type": "address"
        },
        {
          "indexed": true,
          "internalType": "address",
          "name": "tokenIn",
          "type": "address"
        },
        {
          "indexed": false,
          "internalType": "uint256",
          "name": "amountIn",
          "type": "uint256"
        },
        {
          "indexed": false,
          "internalType": "uint256",
          "name": "amountOut",
          "type": "uint256"
        }
      ],
      "name": "Swap",
      "type": "event"
    },
    {
      "anonymous": false,
      "inputs": [
        {
          "indexed": true,
          "internalType": "address",
          "name": "from",
          "type": "address"
        },
        {
          "indexed": true,
          "internalType": "address",
          "name": "to",
          "type": "address"
        },
        {
          "indexed": false,
          "internalType": "uint256",
          "name": "value",
          "type": "uint256"
        }
      ],
      "name": "Transfer",
      "type": "event"
    },
    {
      "inputs": [
        {
          "internalType": "uint256",
          "name": "amountA",
          "type": "uint256"
        },
        {
          "internalType": "uint256",
          "name": "amountB",
          "type": "uint256"
        }
      ],
      "name": "addLiquidity",
      "outputs": [
        {
          "internalType": "uint256",
          "name": "liquidity",
          "type": "uint256"
        }
      ],
      "stateMutability": "nonpayable",
      "type": "function"
    },
    {
      "inputs": [
        {
          "internalType": "address",
          "name": "owner",
          "type": "address"
        },
        {
          "internalType": "address",
          "name": "spender",
          "type": "address"
        }
      ],
      "name": "allowance",
      "outputs": [
        {
          "internalType": "uint256",
          "name": "",
          "type": "uint256"
        }
      ],
      "stateMutability": "view",
      "type": "function"
    },
    {
      "inputs": [
        {
          "internalType": "address",
          "name": "spender",
          "type": "address"
        },
        {
          "internalType": "uint256",
          "name": "value",
          "type": "uint256"
        }
      ],
      "name": "approve",
      "outputs": [
        {
          "internalType": "bool",
          "name": "",
          "type": "bool"
        }
      ],
      "stateMutability": "nonpayable",
      "type": "function"
    },
    {
      "inputs": [
        {
          "internalType": "address",
          "name": "account",
          "type": "address"
        }
      ],
      "name": "balanceOf",
      "outputs": [
        {
          "internalType": "uint256",
          "name": "",
          "type": "uint256"
        }
      ],
      "stateMutability": "view",
      "type": "function"
    },
    {
      "inputs": [],
      "name": "decimals",
      "outputs": [
        {
          "internalType": "uint8",
          "name": "",
          "type": "uint8"
        }
      ],
      "stateMutability": "view",
      "type": "function"
    },
    {
      "inputs": [],
      "name": "getReserves",
      "outputs": [
        {
          "internalType": "uint256",
          "name": "reserveA",
          "type": "uint256"
        },
        {
          "internalType": "uint256",
          "name": "reserveB",
          "type": "uint256"
        }
      ],
      "stateMutability": "view",
      "type": "function"
    },
    {
      "inputs": [
        {
          "internalType": "address",
          "name": "tokenIn",
          "type": "address"
        },
        {
          "internalType": "uint256",
          "name": "amountIn",
          "type": "uint256"
        }
      ],
      "name": "getSwapOutput",
      "outputs": [
        {
          "internalType": "uint256",
          "name": "amountOut",
          "type": "uint256"
        }
      ],
      "stateMutability": "view",
      "type": "function"
    },
    {
      "inputs": [],
      "name": "name",
      "outputs": [
        {
          "internalType": "string",
          "name": "",
          "type": "string"
        }
      ],
      "stateMutability": "view",
      "type": "function"
    },
    {
      "inputs": [
        {
          "internalType": "uint256",
          "name": "liquidity",
          "type": "uint256"
        }
      ],
      "name": "removeLiquidity",
      "outputs": [
        {
          "internalType": "uint256",
          "name": "amountA",
          "type": "uint256"
        },
        {
          "internalType": "uint256",
          "name": "amountB",
          "type": "uint256"
        }
      ],
      "stateMutability": "nonpayable",
      "type": "function"
    },
    {
      "inputs": [
        {
          "internalType": "address",
          "name": "tokenIn",
          "type": "address"
        },
        {
          "internalType": "uint256",
          "name": "amountIn",
          "type": "uint256"
        }
      ],
      "name": "swap",
      "outputs": [
        {
          "internalType": "uint256",
          "name": "amountOut",
          "type": "uint256"
        }
      ],
      "stateMutability": "nonpayable",
      "type": "function"
    },
    {
      "inputs": [],
      "name": "symbol",
      "outputs": [
        {
          "internalType": "string",
          "name": "",
          "type": "string"
        }
      ],
      "stateMutability": "view",
      "type": "function"
    },
    {
      "inputs": [],
      "name": "tokenA",
      "outputs": [
        {
          "internalType": "contract IERC20",
          "name": "",
          "type": "address"
        }
      ],
      "stateMutability": "view",
      "type": "function"
    },
    {
      "inputs": [],
      "name": "tokenB",
      "outputs": [
        {
          "internalType": "contract IERC20",
          "name": "",
          "type": "address"
        }
      ],
      "stateMutability": "view",
      "type": "function"
    },
    {
      "inputs": [],
      "name": "totalSupply",
      "outputs": [
        {
          "internalType": "uint256",
          "name": "",
          "type": "uint256"
        }
      ],
      "stateMutability": "view",
      "type": "function"
    },
    {
      "inputs": [
        {
          "internalType": "address",
          "name": "to",
          "type": "address"
        },
        {
          "internalType": "uint256",
          "name": "value",
          "type": "uint256"
        }
      ],
      "name": "transfer",
      "outputs": [
        {
          "internalType": "bool",
          "name": "",
          "type": "bool"
        }
      ],
      "stateMutability": "nonpayable",
      "type": "function"
    },
    {
      "inputs": [
        {
          "internalType": "address",
          "name": "from",
          "type": "address"
        },
        {
          "internalType": "address",
          "name": "to",
          "type": "address"
        },
        {
          "internalType": "uint256",
          "name": "value",
          "type": "uint256"
        }
      ],
      "name": "transferFrom",
      "outputs": [
        {
          "internalType": "bool",
          "name": "",
          "type": "bool"
        }
      ],
      "stateMutability": "nonpayable",
      "type": "function"
    }
  ],
  "bytecode": "0x60806040523480156200001157600080fd5b50604051620019c7380380620019c78339810160408190526200003491620000e7565b604051806040016040528060088152602001672628102a37b5b2b760c11b8152506040518060400160405280600281526020016104c560f41b8152508160039081620000819190620001c6565b506004620000908282620001c6565b5050600160055550600680546001600160a01b039384166001600160a01b0319918216179091556007805492909316911617905562000292565b80516001600160a01b0381168114620000e257600080fd5b919050565b60008060408385031215620000fb57600080fd5b6200010683620000ca565b91506200011660208401620000ca565b90509250929050565b634e487b7160e01b600052604160045260246000fd5b600181811c908216806200014a57607f821691505b6020821081036200016b57634e487b7160e01b600052602260045260246000fd5b50919050565b601f821115620001c1576000816000526020600020601f850160051c810160208610156200019c5750805b601f850160051c820191505b81811015620001bd57828155600101620001a8565b5050505b505050565b81516001600160401b03811115620001e257620001e26200011f565b620001fa81620001f3845462000135565b8462000171565b602080601f831160018114620002325760008415620002195750858301515b600019600386901b1c1916600185901b178555620001bd565b600085815260208120601f198616915b82811015620002635788860151825594840194600190910190840162000242565b5085821015620002825787850151600019600388901b60f8161c191681555b5050505050600190811b01905550565b61172580620002a26000396000f3fe608060405234801561001057600080fd5b50600436106101005760003560e01c806370a08231116100975780639cd441da116100665780639cd441da1461022c578063a9059cbb1461023f578063d004f0f714610252578063dd62ed3e1461026557600080fd5b806370a08231146101d557806395d89b41146101fe57806398202f24146102065780639c8f9f231461021957600080fd5b806318160ddd116100d357806318160ddd1461018e57806323b872dd146101a0578063313ce567146101b35780635f64b55b146101c257600080fd5b806306fdde03146101055780630902f1ac14610123578063095ea7b3146101405780630fc63d1014610163575b600080fd5b61010d61029e565b60405161011a91906114b6565b60405180910390f35b61012b610330565b6040805192835260208301919091520161011a565b61015361014e36600461151c565b610414565b604051901515815260200161011a565b600654610176906001600160a01b031681565b6040516001600160a01b03909116815260200161011a565b6002545b60405190815260200161011a565b6101536101ae366004611546565b61042e565b6040516012815260200161011a565b600754610176906001600160a01b031681565b6101926101e3366004611582565b6001600160a01b031660009081526020819052604090205490565b61010d610452565b61019261021436600461151c565b610461565b61012b61022736600461159d565b610680565b61019261023a3660046115b6565b610996565b61015361024d36600461151c565b610cf0565b61019261026036600461151c565b610cfe565b6101926102733660046115d8565b6001600160a01b03918216600090815260016020908152604080832093909416825291909152205490565b6060600380546102ad9061160b565b80601f01602080910402602001604051908101604052809291908181526020018280546102d99061160b565b80156103265780601f106102fb57610100808354040283529160200191610326565b820191906000526020600020905b81548152906001019060200180831161030957829003601f168201915b5050505050905090565b6006546040516370a0823160e01b815230600482015260009182916001600160a01b03909116906370a0823190602401602060405180830381865afa15801561037d573d6000803e3d6000fd5b505050506040513d601f19601f820116820180604052508101906103a1919061163f565b6007546040516370a0823160e01b81523060048201529193506001600160a01b0316906370a0823190602401602060405180830381865afa1580156103ea573d6000803e3d6000fd5b505050506040513d601f19601f8201168201806040525081019061040e919061163f565b90509091565b6000336104228185856110a5565b60019150505b92915050565b60003361043c8582856110b7565b610447858585611136565b506001949350505050565b6060600480546102ad9061160b565b6006546000906001600160a01b038481169116148061048d57506007546001600160a01b038481169116145b6104ce5760405162461bcd60e51b815260206004820152600d60248201526c24b73b30b634b2103a37b5b2b760991b60448201526064015b60405180910390fd5b600082116105135760405162461bcd60e51b81526020600482015260126024820152710416d6f756e74206d757374206265203e20360741b60448201526064016104c5565b6006546001600160a01b0384811691161460008082610544576007546006546001600160a01b039182169116610558565b6006546007546001600160a01b0391821691165b6040516370a0823160e01b815230600482015291935091506000906001600160a01b038416906370a0823190602401602060405180830381865afa1580156105a4573d6000803e3d6000fd5b505050506040513d601f19601f820116820180604052508101906105c8919061163f565b6040516370a0823160e01b81523060048201529091506000906001600160a01b038416906370a0823190602401602060405180830381865afa158015610612573d6000803e3d6000fd5b505050506040513d601f19601f82011682018060405250810190610636919061163f565b90506000610646886103e561166e565b905080610655846103e861166e565b61065f9190611685565b610669838361166e565b6106739190611698565b9998505050505050505050565b60008061068b611195565b600083116106d35760405162461bcd60e51b815260206004820152601560248201527404c6971756964697479206d757374206265203e203605c1b60448201526064016104c5565b6006546040516370a0823160e01b81523060048201526000916001600160a01b0316906370a0823190602401602060405180830381865afa15801561071c573d6000803e3d6000fd5b505050506040513d601f19601f82011682018060405250810190610740919061163f565b6007546040516370a0823160e01b81523060048201529192506000916001600160a01b03909116906370a0823190602401602060405180830381865afa15801561078e573d6000803e3d6000fd5b505050506040513d601f19601f820116820180604052508101906107b2919061163f565b905060006107bf60025490565b9050806107cc848861166e565b6107d69190611698565b9450806107e3838861166e565b6107ed9190611698565b93506000851180156107ff5750600084115b61084b5760405162461bcd60e51b815260206004820152601d60248201527f496e73756666696369656e74206c6971756964697479206275726e656400000060448201526064016104c5565b61085533876111bf565b60065460405163a9059cbb60e01b8152336004820152602481018790526001600160a01b039091169063a9059cbb906044016020604051808303816000875af11580156108a6573d6000803e3d6000fd5b505050506040513d601f19601f820116820180604052508101906108ca91906116ba565b5060075460405163a9059cbb60e01b8152336004820152602481018690526001600160a01b039091169063a9059cbb906044016020604051808303816000875af115801561091c573d6000803e3d6000fd5b505050506040513d601f19601f8201168201806040525081019061094091906116ba565b50604080518681526020810186905290810187905233907f1dc8bb69df2b8e91fbdcbfcf93d951b3f0000f085a95fe3f7946d6161439245d9060600160405180910390a25050506109916001600555565b915091565b60006109a0611195565b6000831180156109b05750600082115b6109f25760405162461bcd60e51b81526020600482015260136024820152720416d6f756e7473206d757374206265203e203606c1b60448201526064016104c5565b6006546040516323b872dd60e01b8152336004820152306024820152604481018590526001600160a01b03909116906323b872dd906064016020604051808303816000875af1158015610a49573d6000803e3d6000fd5b505050506040513d601f19601f82011682018060405250810190610a6d91906116ba565b506007546040516323b872dd60e01b8152336004820152306024820152604481018490526001600160a01b03909116906323b872dd906064016020604051808303816000875af1158015610ac5573d6000803e3d6000fd5b505050506040513d601f19601f82011682018060405250810190610ae991906116ba565b506000610af560025490565b905080600003610b1857610b11610b0c848661166e565b6111f9565b9150610c48565b6006546040516370a0823160e01b815230600482015260009186916001600160a01b03909116906370a0823190602401602060405180830381865afa158015610b65573d6000803e3d6000fd5b505050506040513d601f19601f82011682018060405250810190610b89919061163f565b610b9391906116dc565b6007546040516370a0823160e01b815230600482015291925060009186916001600160a01b0316906370a0823190602401602060405180830381865afa158015610be1573d6000803e3d6000fd5b505050506040513d601f19601f82011682018060405250810190610c05919061163f565b610c0f91906116dc565b9050610c4382610c1f858961166e565b610c299190611698565b82610c34868961166e565b610c3e9190611698565b611269565b935050505b60008211610c985760405162461bcd60e51b815260206004820152601d60248201527f496e73756666696369656e74206c6971756964697479206d696e74656400000060448201526064016104c5565b610ca23383611281565b604080518581526020810185905290810183905233907f64b83944e79c3ce8d4c297411de637c3e102d064677aac0c163976ebdcd6f50e9060600160405180910390a2506104286001600555565b600033610422818585611136565b6000610d08611195565b6006546001600160a01b0384811691161480610d3157506007546001600160a01b038481169116145b610d6d5760405162461bcd60e51b815260206004820152600d60248201526c24b73b30b634b2103a37b5b2b760991b60448201526064016104c5565b60008211610db25760405162461bcd60e51b81526020600482015260126024820152710416d6f756e74206d757374206265203e20360741b60448201526064016104c5565b6006546001600160a01b0384811691161460008082610de3576007546006546001600160a01b039182169116610df7565b6006546007546001600160a01b0391821691165b6040516370a0823160e01b815230600482015291935091506000906001600160a01b038416906370a0823190602401602060405180830381865afa158015610e43573d6000803e3d6000fd5b505050506040513d601f19601f82011682018060405250810190610e67919061163f565b6040516370a0823160e01b81523060048201529091506000906001600160a01b038416906370a0823190602401602060405180830381865afa158015610eb1573d6000803e3d6000fd5b505050506040513d601f19601f82011682018060405250810190610ed5919061163f565b6040516323b872dd60e01b8152336004820152306024820152604481018990529091506001600160a01b038516906323b872dd906064016020604051808303816000875af1158015610f2b573d6000803e3d6000fd5b505050506040513d601f19601f82011682018060405250810190610f4f91906116ba565b506000610f5e886103e561166e565b905080610f6d846103e861166e565b610f779190611685565b610f81838361166e565b610f8b9190611698565b965060008711610fdd5760405162461bcd60e51b815260206004820152601a60248201527f496e73756666696369656e74206f757470757420616d6f756e7400000000000060448201526064016104c5565b60405163a9059cbb60e01b8152336004820152602481018890526001600160a01b0385169063a9059cbb906044016020604051808303816000875af115801561102a573d6000803e3d6000fd5b505050506040513d601f19601f8201168201806040525081019061104e91906116ba565b5060408051898152602081018990526001600160a01b038b169133917ffa2dda1cc1b86e41239702756b13effbc1a092b5c57e3ad320fbe4f3b13fe235910160405180910390a35050505050506104286001600555565b6110b283838360016112b7565b505050565b6001600160a01b03838116600090815260016020908152604080832093861683529290522054600019811015611130578181101561112157604051637dc7a0d960e11b81526001600160a01b038416600482015260248101829052604481018390526064016104c5565b611130848484840360006112b7565b50505050565b6001600160a01b03831661116057604051634b637e8f60e11b8152600060048201526024016104c5565b6001600160a01b03821661118a5760405163ec442f0560e01b8152600060048201526024016104c5565b6110b283838361138c565b6002600554036111b857604051633ee5aeb560e01b815260040160405180910390fd5b6002600555565b6001600160a01b0382166111e957604051634b637e8f60e11b8152600060048201526024016104c5565b6111f58260008361138c565b5050565b6000600382111561125a5750806000611213600283611698565b61121e906001611685565b90505b81811015611254579050806002816112398186611698565b6112439190611685565b61124d9190611698565b9050611221565b50919050565b8115611264575060015b919050565b6000818310611278578161127a565b825b9392505050565b6001600160a01b0382166112ab5760405163ec442f0560e01b8152600060048201526024016104c5565b6111f56000838361138c565b6001600160a01b0384166112e15760405163e602df0560e01b8152600060048201526024016104c5565b6001600160a01b03831661130b57604051634a1406b160e11b8152600060048201526024016104c5565b6001600160a01b038085166000908152600160209081526040808320938716835292905220829055801561113057826001600160a01b0316846001600160a01b03167f8c5be1e5ebec7d5bd14f71427d1e84f3dd0314c0f7b2291e5b200ac8c7c3b9258460405161137e91815260200190565b60405180910390a350505050565b6001600160a01b0383166113b75780600260008282546113ac9190611685565b909155506114299050565b6001600160a01b0383166000908152602081905260409020548181101561140a5760405163391434e360e21b81526001600160a01b038516600482015260248101829052604481018390526064016104c5565b6001600160a01b03841660009081526020819052604090209082900390555b6001600160a01b03821661144557600280548290039055611464565b6001600160a01b03821660009081526020819052604090208054820190555b816001600160a01b0316836001600160a01b03167fddf252ad1be2c89b69c2b068fc378daa952ba7f163c4a11628f55a4df523b3ef836040516114a991815260200190565b60405180910390a3505050565b60006020808352835180602085015260005b818110156114e4578581018301518582016040015282016114c8565b506000604082860101526040601f19601f8301168501019250505092915050565b80356001600160a01b038116811461126457600080fd5b6000806040838503121561152f57600080fd5b61153883611505565b946020939093013593505050565b60008060006060848603121561155b57600080fd5b61156484611505565b925061157260208501611505565b9150604084013590509250925092565b60006020828403121561159457600080fd5b61127a82611505565b6000602082840312156115af57600080fd5b5035919050565b600080604083850312156115c957600080fd5b50508035926020909101359150565b600080604083850312156115eb57600080fd5b6115f483611505565b915061160260208401611505565b90509250929050565b600181811c9082168061161f57607f821691505b60208210810361125457634e487b7160e01b600052602260045260246000fd5b60006020828403121561165157600080fd5b5051919050565b634e487b7160e01b600052601160045260246000fd5b808202811582820484141761042857610428611658565b8082018082111561042857610428611658565b6000826116b557634e487b7160e01b600052601260045260246000fd5b500490565b6000602082840312156116cc57600080fd5b8151801515811461127a57600080fd5b818103818111156104285761042861165856fea26469706673582212203476b41e03cc1029dd536f2c489891d52a0cb809fafbe6ed8d3336aee687abc064736f6c63430008180033",
  "linkReferences": {},
  "deployedLinkReferences": {}
}